{
  "contractName": "TodoList",
  "abi": [
    {
      "inputs": [],
      "payable": false,
      "stateMutability": "nonpayable",
      "type": "constructor"
    },
    {
      "constant": true,
      "inputs": [],
      "name": "taskNumber",
      "outputs": [
        {
          "internalType": "uint256",
          "name": "",
          "type": "uint256"
        }
      ],
      "payable": false,
      "stateMutability": "view",
      "type": "function"
    },
    {
      "constant": true,
      "inputs": [
        {
          "internalType": "uint256",
          "name": "",
          "type": "uint256"
        }
      ],
      "name": "tasks",
      "outputs": [
        {
          "internalType": "uint256",
          "name": "id",
          "type": "uint256"
        },
        {
          "internalType": "string",
          "name": "description",
          "type": "string"
        },
        {
          "internalType": "bool",
          "name": "isCompleted",
          "type": "bool"
        }
      ],
      "payable": false,
      "stateMutability": "view",
      "type": "function"
    },
    {
      "constant": false,
      "inputs": [
        {
          "internalType": "string",
          "name": "_content",
          "type": "string"
        }
      ],
      "name": "createTask",
      "outputs": [],
      "payable": false,
      "stateMutability": "nonpayable",
      "type": "function"
    },
    {
      "constant": false,
      "inputs": [
        {
          "internalType": "uint256",
          "name": "_id",
          "type": "uint256"
        }
      ],
      "name": "deleteTask",
      "outputs": [],
      "payable": false,
      "stateMutability": "nonpayable",
      "type": "function"
    },
    {
      "constant": true,
      "inputs": [],
      "name": "getTaskNumber",
      "outputs": [
        {
          "internalType": "uint256",
          "name": "",
          "type": "uint256"
        }
      ],
      "payable": false,
      "stateMutability": "view",
      "type": "function"
    }
  ],
  "bytecode": "0x60806040526000805534801561001457600080fd5b506100596040518060400160405280600a81526020017f6669727374207461736b0000000000000000000000000000000000000000000081525061005e60201b60201c565b610195565b6000808154809291906001019190505550604051806060016040528060005481526020018281526020016000151581525060016000805481526020019081526020016000206000820151816000015560208201518160010190805190602001906100c99291906100f0565b5060408201518160020160006101000a81548160ff02191690831515021790555090505050565b828054600181600116156101000203166002900490600052602060002090601f016020900481019282601f1061013157805160ff191683800117855561015f565b8280016001018555821561015f579182015b8281111561015e578251825591602001919060010190610143565b5b50905061016c9190610170565b5090565b61019291905b8082111561018e576000816000905550600101610176565b5090565b90565b610523806101a46000396000f3fe608060405234801561001057600080fd5b50600436106100575760003560e01c8063111002aa1461005c578063560f31921461011757806372d18e8d146101455780637b654c5d146101635780638d97767214610181575b600080fd5b6101156004803603602081101561007257600080fd5b810190808035906020019064010000000081111561008f57600080fd5b8201836020820111156100a157600080fd5b803590602001918460018302840111640100000000831117156100c357600080fd5b91908080601f016020809104026020016040519081016040528093929190818152602001838380828437600081840152601f19601f82011690508083019250505050505050919291929050505061023a565b005b6101436004803603602081101561012d57600080fd5b81019080803590602001909291905050506102cc565b005b61014d610323565b6040518082815260200191505060405180910390f35b61016b610329565b6040518082815260200191505060405180910390f35b6101ad6004803603602081101561019757600080fd5b8101908080359060200190929190505050610332565b604051808481526020018060200183151515158152602001828103825284818151815260200191508051906020019080838360005b838110156101fd5780820151818401526020810190506101e2565b50505050905090810190601f16801561022a5780820380516001836020036101000a031916815260200191505b5094505050505060405180910390f35b6000808154809291906001019190505550604051806060016040528060005481526020018281526020016000151581525060016000805481526020019081526020016000206000820151816000015560208201518160010190805190602001906102a5929190610401565b5060408201518160020160006101000a81548160ff02191690831515021790555090505050565b600160008281526020019081526020016000206000808201600090556001820160006102f89190610481565b6002820160006101000a81549060ff0219169055505060008081548092919060019003919050555050565b60005481565b60008054905090565b6001602052806000526040600020600091509050806000015490806001018054600181600116156101000203166002900480601f0160208091040260200160405190810160405280929190818152602001828054600181600116156101000203166002900480156103e45780601f106103b9576101008083540402835291602001916103e4565b820191906000526020600020905b8154815290600101906020018083116103c757829003601f168201915b5050505050908060020160009054906101000a900460ff16905083565b828054600181600116156101000203166002900490600052602060002090601f016020900481019282601f1061044257805160ff1916838001178555610470565b82800160010185558215610470579182015b8281111561046f578251825591602001919060010190610454565b5b50905061047d91906104c9565b5090565b50805460018160011615610100020316600290046000825580601f106104a757506104c6565b601f0160209004906000526020600020908101906104c591906104c9565b5b50565b6104eb91905b808211156104e75760008160009055506001016104cf565b5090565b9056fea265627a7a723158208e184fa5449146670a315a113d7752d0b56686f9ba448b8979f2be714139cee564736f6c63430005100032",
  "source": "// SPDX-License-Identifier: MIT\npragma solidity >=0.4.22 <0.9.0;\n\ncontract TodoList {\n    uint256 public taskNumber = 0;\n\n    struct Task {\n        uint256 id;\n        string description;\n        bool isCompleted;\n    }\n\n    mapping(uint256 => Task) public tasks;\n\n    function createTask(string memory _content) public {\n        taskNumber++;\n        tasks[taskNumber] = Task(taskNumber, _content, false);\n    }\n\n    function deleteTask(uint256 _id) public {\n        delete tasks[_id];\n        taskNumber--;\n    }\n\n    function getTaskNumber() public view returns (uint256) {\n        return taskNumber;\n    }\n\n    constructor() public {\n        createTask(\"first task\");\n    }\n}\n",
  "sourcePath": "/Users/sborkowski/Desktop/blockchain-todo-app/contracts/TodoList.sol",
  "compiler": {
    "name": "solc",
    "version": "0.5.16+commit.9c3226ce.Emscripten.clang"
  },
  "schemaVersion": "3.4.6",
  "updatedAt": "2022-03-25T15:22:44.163Z",
  "networkType": "ethereum",
  "devdoc": {
    "methods": {}
  },
  "userdoc": {
    "methods": {}
  }
}