{
  "contractName": "TodoList",
  "abi": [
    {
      "inputs": [],
      "payable": false,
      "stateMutability": "nonpayable",
      "type": "constructor"
    },
    {
      "constant": true,
      "inputs": [],
      "name": "taskNumber",
      "outputs": [
        {
          "internalType": "uint256",
          "name": "",
          "type": "uint256"
        }
      ],
      "payable": false,
      "stateMutability": "view",
      "type": "function"
    },
    {
      "constant": true,
      "inputs": [
        {
          "internalType": "uint256",
          "name": "",
          "type": "uint256"
        }
      ],
      "name": "tasks",
      "outputs": [
        {
          "internalType": "uint256",
          "name": "id",
          "type": "uint256"
        },
        {
          "internalType": "string",
          "name": "description",
          "type": "string"
        },
        {
          "internalType": "bool",
          "name": "isCompleted",
          "type": "bool"
        }
      ],
      "payable": false,
      "stateMutability": "view",
      "type": "function"
    },
    {
      "constant": false,
      "inputs": [
        {
          "internalType": "string",
          "name": "_content",
          "type": "string"
        }
      ],
      "name": "createTask",
      "outputs": [],
      "payable": false,
      "stateMutability": "nonpayable",
      "type": "function"
    },
    {
      "constant": true,
      "inputs": [],
      "name": "getTaskNumber",
      "outputs": [
        {
          "internalType": "uint256",
          "name": "",
          "type": "uint256"
        }
      ],
      "payable": false,
      "stateMutability": "view",
      "type": "function"
    }
  ],
  "bytecode": "0x60806040526000805534801561001457600080fd5b506100596040518060400160405280600a81526020017f6669727374207461736b0000000000000000000000000000000000000000000081525061005e60201b60201c565b610195565b6000808154809291906001019190505550604051806060016040528060005481526020018281526020016000151581525060016000805481526020019081526020016000206000820151816000015560208201518160010190805190602001906100c99291906100f0565b5060408201518160020160006101000a81548160ff02191690831515021790555090505050565b828054600181600116156101000203166002900490600052602060002090601f016020900481019282601f1061013157805160ff191683800117855561015f565b8280016001018555821561015f579182015b8281111561015e578251825591602001919060010190610143565b5b50905061016c9190610170565b5090565b61019291905b8082111561018e576000816000905550600101610176565b5090565b90565b61044b806101a46000396000f3fe608060405234801561001057600080fd5b506004361061004c5760003560e01c8063111002aa1461005157806372d18e8d1461010c5780637b654c5d1461012a5780638d97767214610148575b600080fd5b61010a6004803603602081101561006757600080fd5b810190808035906020019064010000000081111561008457600080fd5b82018360208201111561009657600080fd5b803590602001918460018302840111640100000000831117156100b857600080fd5b91908080601f016020809104026020016040519081016040528093929190818152602001838380828437600081840152601f19601f820116905080830192505050505050509192919290505050610201565b005b610114610293565b6040518082815260200191505060405180910390f35b610132610299565b6040518082815260200191505060405180910390f35b6101746004803603602081101561015e57600080fd5b81019080803590602001909291905050506102a2565b604051808481526020018060200183151515158152602001828103825284818151815260200191508051906020019080838360005b838110156101c45780820151818401526020810190506101a9565b50505050905090810190601f1680156101f15780820380516001836020036101000a031916815260200191505b5094505050505060405180910390f35b60008081548092919060010191905055506040518060600160405280600054815260200182815260200160001515815250600160008054815260200190815260200160002060008201518160000155602082015181600101908051906020019061026c929190610371565b5060408201518160020160006101000a81548160ff02191690831515021790555090505050565b60005481565b60008054905090565b6001602052806000526040600020600091509050806000015490806001018054600181600116156101000203166002900480601f0160208091040260200160405190810160405280929190818152602001828054600181600116156101000203166002900480156103545780601f1061032957610100808354040283529160200191610354565b820191906000526020600020905b81548152906001019060200180831161033757829003601f168201915b5050505050908060020160009054906101000a900460ff16905083565b828054600181600116156101000203166002900490600052602060002090601f016020900481019282601f106103b257805160ff19168380011785556103e0565b828001600101855582156103e0579182015b828111156103df5782518255916020019190600101906103c4565b5b5090506103ed91906103f1565b5090565b61041391905b8082111561040f5760008160009055506001016103f7565b5090565b9056fea265627a7a723158204f6e44f558c3e0f018819914a0a532a128fcd5a9d0918e20f638bbe627573e8a64736f6c63430005100032",
  "source": "// SPDX-License-Identifier: MIT\npragma solidity >=0.4.22 <0.9.0;\n\ncontract TodoList {\n    uint256 public taskNumber = 0;\n\n    struct Task {\n        uint256 id;\n        string description;\n        bool isCompleted;\n    }\n\n    mapping(uint256 => Task) public tasks;\n\n    function createTask(string memory _content) public {\n        taskNumber++;\n        tasks[taskNumber] = Task(taskNumber, _content, false);\n    }\n\n    function getTaskNumber() public view returns (uint256) {\n        return taskNumber;\n    }\n\n    constructor() public {\n        createTask(\"first task\");\n    }\n}\n",
  "sourcePath": "/Users/sborkowski/Desktop/blockchain-todo-app/contracts/TodoList.sol",
  "compiler": {
    "name": "solc",
    "version": "0.5.16+commit.9c3226ce.Emscripten.clang"
  },
  "schemaVersion": "3.4.6",
  "updatedAt": "2022-03-25T11:45:30.633Z",
  "networkType": "ethereum",
  "devdoc": {
    "methods": {}
  },
  "userdoc": {
    "methods": {}
  }
}